:1000030000FE00FD00FB00F700EF00DF00BF007FF4
:1000130000FF00FF00FF00FF00FF00FF00FF00FFE5
:1000230000FF00FF00FF00FF00FF00FF00FF00FFD5
:1000330000FF00FF00FF00FF00FF00FF00FF00FFC5
:1000430000FE00FD00FB00F700EF00DF00BF007FB4
:1000530000FF00FF00FF00FF00FF00FF00FF00FFA5
:1000630000FF00FF00FF00FF00FF00FF00FF00FF95
:1000730000FF00FF00FF00FF00FF00FF00FF00FE86
:1000830000FD00FB00F700EF00DF00BF007F00FF73
:1000930000FF00FF00FF00FF00FF00FF00FF00FF65
:1000A30000FF00FF00FF00FF00FF00FF00FF00FF55
:1000B30000FF00FF00FF00FF00FF00FE00FD00FB4C
:1000C30000F700EF00DF00BF007F00FF00FF00FF2D
:1000D30000FF00FF00FF00FF00FF00FF00FF00FF25
:1000E30000FF00FF00FF00FF00FF00FF00FF00FF15
:1000F30000FF00FF00FE00FD00FB00F700EF00DF44
:1001030000BF007F00FF00FF00FF00FF00FF00FFB4
:1001130000FF00FF00FF00FF00FF00FF00FF00FFE4
:1001230000FF00FF00FF00FF00FF00FF00FE00FDD7
:1001330000FB00F700EF00DF00BF007F00FF00FFC0
:1001430000FF00FF00FF00FF00FF00FF00FF00FFB4
:1001530000FF00FF00FF00FF00FF00FF00FF00FFA4
:1001630000FF00FE00FD00FB00F700EF00DF00BF13
:10017300007F00FF00FF00FF00FF00FF00FF00FF04
:1001830000FF00FF00FF00FF00FF00FF00FF00FF74
:1001930000FF00FF00FF00FE00FD00FB00F700EF83
:1001A30000DF00BF007F00FF00FF00FF00FF00FF34
:1001B30000FF00FF00FF00FF00FF00FF00FF00FF44
:1001C30000FF00FF00FF00FF00FE00FD00FB00F743
:1001D30000EF00DF00BF007F00FF00FF00FF00FF14
:1001E30000FF00FF00FF00FF00FF00FF00FF00FF14
:1001F30000FF00FF00FF00FF00FE00FD00FB00F713
:1002030000EF00DF00BF007F00FF00FF00FF00FFE3
:1002130000FF00FF00FF00FF00FF00FF00FF00FFE3
:1002230000FF00FF00FF00FE00FD00FB00F700EFF2
:1002330000DF00BF007F00FF00FF00FF00FF00FFA3
:1002430000FF00FF00FF00FF00FF00FF00FF00FFB3
:1002530000FF00FE00FD00FB00F700EF00DF00BF22
:10026300007F00FF00FF00FF00FF00FF00FF00FF13
:1002730000FF00FF00FF00FF00FF00FF00FE00FD86
:1002830000FB00F700EF00DF00BF007F00FF00FF6F
:1002930000FF00FF00FF00FF00FF00FF00FF00FF63
:1002A30000FF00FF00FE00FD00FB00F700EF00DF92
:1002B30000BF007F00FF00FF00FF00FF00FF00FF03
:1002C30000FF00FF00FF00FF00FF00FE00FD00FB3A
:1002D30000F700EF00DF00BF007F00FF00FF00FF1B
:1002E30000FF00FF00FF00FF00FF00FF00FF00FE14
:1002F30000FD00FB00F700EF00DF00BF007F00FF01
:1003030000FF00FF00FF00FF00FF00FF00FF00FFF2
:1003130000FE00FD00FB00F700EF00DF00BF007FE1
:1003230000FF00FF00FF00FF00FF00FF00FF00FFD2
:1003330000FE00FD00FB00F700EF00DF00BF007FC1
:1003430000FF00FF00FF00FF00FF00FF00FF00FEB3
:1003530000FD00FB00F700EF00DF00BF007F00FFA0
:1003630000FF00FF00FF00FF00FF00FE00FD00FB99
:1003730000F700EF00DF00BF007F00FF00FF00FF7A
:1003830000FF00FF00FE00FD00FB00F700EF00DFB1
:1003930000BF007F00FF00FF00FF00FF00FE00FD25
:1003A30000FB00F700EF00DF00BF007F00FF00FF4E
:1003B30000FF00FE00FD00FB00F700EF00DF00BFC1
:1003C300007F00FF00FF00FE00FD00FB00F700EFD1
:1003D30000DF00BF007F00FF00FE00FD00FB00F711
:1003E30000EF00DF00BF007F007E007D007B007711
:1003F300006F005F003F003E003D003B0037002FD1
:10040300001F001E001D001B0017000F000E000D33
:10041300000B0007000600050003000200010000B6
:1004230000FE00FC00F800F000E000C000800000C7
:1004330000000000000000000000000000000000B9
:1004430000000000000000000000000000000000A9
:100453000000000000000000000000000000000099
:100463000000000000000000000000000000000089
:100473000000000000000000000000000000000079
:10048300008000C000E000F000F800FC00FE00FF68
:1004930000FE00FC00F800F000E000C00080000057
:1004A3000000000000000000000000000000000049
:1004B3000000000000000000000000000000000039
:1004C3000000000000000000000000000000000029
:1004D3000000000000000000000000000000000019
:1004E3000000000000000000000000000000000009
:1004F30000FF00FF00FF00FF00FF00FF00FF00FF01
:1005030000FE00FD00FB00F700EF00DF00BF007FEF
:1005130000FF00FF00FF00FF00FF00FF00FF00FFE0
:1005230000FF00FF00FF00FF00FF00FF00FF00FFD0
:1005330000FF00FF00FF00FF00FF00FF00FF00FFC0
:1005430000FE00FD00FB00F700EF00DF00BF007FAF
:1005530000FF00FF00FF00FF00FF00FF00FF00FFA0
:1005630000FF00FF00FF00FF00FF00FF00FF00FF90
:1005730000FF00FF00FF00FF00FF00FF00FF00FE81
:1005830000FD00FB00F700EF00DF00BF007F00FF6E
:1005930000FF00FF00FF00FF00FF00FF00FF00FF60
:1005A30000FF00FF00FF00FF00FF00FF00FF00FF50
:1005B30000FF00FF00FF00FF00FF00FE00FD00FB47
:1005C30000F700EF00DF00BF007F00FF00FF00FF28
:1005D30000FF00FF00FF00FF00FF00FF00FF00FF20
:1005E30000FF00FF00FF00FF00FF00FF00FF00FF10
:1005F30000FF00FF00FE00FD00FB00F700EF00DF3F
:1006030000BF007F00FF00FF00FF00FF00FF00FFAF
:1006130000FF00FF00FF00FF00FF00FF00FF00FFDF
:1006230000FF00FF00FF00FF00FF00FF00FE00FDD2
:1006330000FB00F700EF00DF00BF007F00FF00FFBB
:1006430000FF00FF00FF00FF00FF00FF00FF00FFAF
:1006530000FF00FF00FF00FF00FF00FF00FF00FF9F
:1006630000FF00FE00FD00FB00F700EF00DF00BF0E
:10067300007F00FF00FF00FF00FF00FF00FF00FFFF
:1006830000FF00FF00FF00FF00FF00FF00FF00FF6F
:1006930000FF00FF00FF00FE00FD00FB00F700EF7E
:1006A30000DF00BF007F00FF00FF00FF00FF00FF2F
:1006B30000FF00FF00FF00FF00FF00FF00FF00FF3F
:1006C30000FF00FF00FF00FF00FE00FD00FB00F73E
:1006D30000EF00DF00BF007F00FF00FF00FF00FF0F
:1006E30000FF00FF00FF00FF00FF00FF00FF00FF0F
:1006F30000FF00FF00FF00FF00FE00FD00FB00F70E
:1007030000EF00DF00BF007F00FF00FF00FF00FFDE
:1007130000FF00FF00FF00FF00FF00FF00FF00FFDE
:1007230000FF00FF00FF00FE00FD00FB00F700EFED
:1007330000DF00BF007F00FF00FF00FF00FF00FF9E
:1007430000FF00FF00FF00FF00FF00FF00FF00FFAE
:1007530000FF00FE00FD00FB00F700EF00DF00BF1D
:10076300007F00FF00FF00FF00FF00FF00FF00FF0E
:1007730000FF00FF00FF00FF00FF00FF00FE00FD81
:1007830000FB00F700EF00DF00BF007F00FF00FF6A
:1007930000FF00FF00FF00FF00FF00FF00FF00FF5E
:1007A30000FF00FF00FE00FD00FB00F700EF00DF8D
:1007B30000BF007F00FF00FF00FF00FF00FF00FFFE
:1007C30000FF00FF00FF00FF00FF00FE00FD00FB35
:1007D30000F700EF00DF00BF007F00FF00FF00FF16
:1007E30000FF00FF00FF00FF00FF00FF00FF00FE0F
:1007F30000FD00FB00F700EF00DF00BF007F00FFFC
:1008030000FF00FF00FF00FF00FF00FF00FF00FFED
:1008130000FE00FD00FB00F700EF00DF00BF007FDC
:10082300007F007F007F007F007F007F007F007FCD
:10083300007E007D007B0077006F005F003F003F7C
:10084300003F003F003F003F003F003F003F003EAE
:10085300003D003B0037002F001F001F001F001F3B
:10086300001F001F001F001F001F001E001D001B94
:100873000017000F000F000F000F000F000F000FF5
:10088300000F000F000E000D000B0007000700070C
:100893000007000700070007000700070006000520
:1008A300000300030003000300030003000300032D
:1008B300000300020001000100010001000100012A
:1008C3000001000100010000000000000000000022
:1008D3000000000000000000000000000000000015
:1008E3000000000000000000000000000000000005
:1008F30000000000000000000000000000000000F5
:1009030000000000000000000000000000000000E4
:1009130000FF00FF00FF00FF00FF00FF00FF00FFDC
:1009230000FE00FC00F800F000E000C000800000C2
:1009330000000000000000000000000000000000B4
:1009430000000000000000000000000000000000A4
:100953000000000000000000000000000000000094
:10096300008000C000E000F000F800FC00FE00FF83
:1009730000FF00FF00FF00FF00FF00FF00FF00FF7C
:1009830000FF00FF00FF00FF00FF00FF00FF00FF6C
:1009930000FE00FC00F800F000E000C00080000052
:1009A3000000000000000000000000000000000044
:1009B3000000000000000000000000000000000034
:1009C3000000000000000000000000000000000024
:1009D3000000000000000000000000000000000014
:1009E30000FF00FF00FF00FF00FF00FF00FF00FF0C
:1009F30000FF00FF00FF00FF00FF00FF00FF00FFFC
:100A030000FE00FD00FB00F700EF00DF00BF007FEA
:100A130000FF00FF00FF00FF00FF00FF00FF00FFDB
:100A230000FF00FF00FF00FF00FF00FF00FF00FFCB
:100A330000FF00FF00FF00FF00FF00FF00FF00FFBB
:100A430000FE00FD00FB00F700EF00DF00BF007FAA
:100A530000FF00FF00FF00FF00FF00FF00FF00FF9B
:100A630000FF00FF00FF00FF00FF00FF00FF00FF8B
:100A730000FF00FF00FF00FF00FF00FF00FF00FE7C
:100A830000FD00FB00F700EF00DF00BF007F00FF69
:100A930000FF00FF00FF00FF00FF00FF00FF00FF5B
:100AA30000FF00FF00FF00FF00FF00FF00FF00FF4B
:100AB30000FF00FF00FF00FF00FF00FE00FD00FB42
:100AC30000F700EF00DF00BF007F00FF00FF00FF23
:100AD30000FF00FF00FF00FF00FF00FF00FF00FF1B
:100AE30000FF00FF00FF00FF00FF00FF00FF00FF0B
:100AF30000FF00FF00FE00FD00FB00F700EF00DF3A
:100B030000BF007F00FF00FF00FF00FF00FF00FFAA
:100B130000FF00FF00FF00FF00FF00FF00FF00FFDA
:100B230000FF00FF00FF00FF00FF00FF00FE00FDCD
:100B330000FB00F700EF00DF00BF007F00FF00FFB6
:100B430000FF00FF00FF00FF00FF00FF00FF00FFAA
:100B530000FF00FF00FF00FF00FF00FF00FF00FF9A
:100B630000FF00FE00FD00FB00F700EF00DF00BF09
:100B7300007F00FF00FF00FF00FF00FF00FF00FFFA
:100B830000FF00FF00FF00FF00FF00FF00FF00FF6A
:100B930000FF00FF00FF00FE00FD00FB00F700EF79
:100BA30000DF00BF007F00FF00FF00FF00FF00FF2A
:100BB30000FF00FF00FF00FF00FF00FF00FF00FF3A
:100BC30000FF00FF00FF00FF00FE00FD00FB00F739
:100BD30000EF00DF00BF007F007F007F007F007F0A
:100BE300007F007F007F007F007F007F007F007F0A
:100BF300007F007F007F007F007E007D007B007709
:100C0300006F005F003F003F003F003F003F003F99
:100C1300003F003F003F003F003F003F003F003FD9
:100C2300003F003F003F003E003D003B0037002FE8
:100C3300001F001F001F001F001F001F001F001FB9
:100C4300001F001F001F001F001F001F001F001FA9
:100C5300001F001E001D001B0017000F000F000FD8
:100C6300000F000F000F000F000F000F000F000F09
:100C7300000F000F000F000F000F000F000E000DFC
:100C8300000B000700070007000700070007000725
:100C93000007000700070007000700070007000719
:100CA300000700070006000500030003000300031C
:100CB3000003000300030003000300030003000319
:100CC300000300030003000300030002000100010E
:100CD3000001000100010001000100010001000109
:100CE30000010001000100010001000100010000FA
:100CF30000000000000000000000000000000000F1
:100D030000000000000000000000000000000000E0
:100D130000000000000000000000000000000000D0
:100D230000000000000000000000000000000000C0
:100D330000000000000000000000000000000000B0
:100D430000000000000000000000000000000000A0
:100D53000000000000000000000000000000000090
:100D63000000000000000000000000000000000080
:100D73000000000000000000000000000000000070
:100D83000000000000000000000000000000000060
:100D93000000000000000000000000000000000050
:100DA3000000000000000000000000000000000040
:100DB3000000000000000000000000000000000030
:100DC3000000000000000000000000000000000020
:100DD3000000000000000000000000000000000010
:100DE3000000000000000000000000000000000000
:100DF30000000000000000000000000000000000F0
:100E030000FF00FF00FF00FF00FF00FF00FF00FFE7
:100E1300007F003F001F000F0007000300010000D8
:100E230000000000000000000000000000000000BF
:100E330000000000000000000000000000000000AF
:100E4300000000000000000000000000000000009F
:100E5300000100030007000F001F003F007F00FF99
:100E630000FF00FF00FF00FF00FF00FF00FF00FF87
:100E730000FF00FF00FF00FF00FF00FF00FF00FF77
:100E830000FF00FF00FF00FF00FF00FF00FF00FF67
:100E930000FE00FC00F800F000E000C0008000004D
:100EA300000000000000000000000000000000003F
:100EB300000000000000000000000000000000002F
:100EC300000000000000000000000000000000001F
:100ED30000FF00FF00FF00FF00FF00FF00FF00FF17
:100EE30000FF00FF00FF00FF00FF00FF00FF00FF07
:100EF30000FF00FF00FF00FF00FF00FF00FF00FFF7
:100F030000FE00FD00FB00F700EF00DF00BF007FE5
:100F1300007F007F007F007F007F007F007F007FD6
:100F2300007F007F007F007F007F007F007F007FC6
:100F3300007F007F007F007F007F007F007F007FB6
:100F4300007E007D007B0077006F005F003F003F65
:100F5300003F003F003F003F003F003F003F003F96
:100F6300003F003F003F003F003F003F003F003F86
:100F7300003F003F003F003F003F003F003F003E77
:100F8300003D003B0037002F001F001F001F001F04
:100F9300001F001F001F001F001F001F001F001F56
:100FA300001F001F001F001F001F001F001F001F46
:100FB300001F001F001F001F001F001E001D001B3D
:100FC3000017000F000F000F000F000F000F000F9E
:100FD300000F000F000F000F000F000F000F000F96
:100FE300000F000F000F000F000F000F000F000F86
:100FF300000F000F000E000D000B00070007000795
:1010030000070007000700070007000700070007A5
:101013000007000700070007000700070007000795
:101023000007000700070007000700070006000588
:101033000003000300030003000300030003000395
:101043000003000300030003000300030003000385
:101053000003000300030003000300030003000375
:101063000003000200010001000100010001000172
:101073000001000100010001000100010001000165
:101083000001000100010001000100010001000155
:10109300000100010001000000000000000000004A
:1010A300000000000000000000000000000000003D
:1010B300000000000000000000000000000000002D
:1010C300000000000000000000000000000000001D
:1010D300000000000000000000000000000000000D
:1012F300007F003F001F000F0007000300010000F4
:1013030000000000000000000000000000000000DA
:1013130000000000000000000000000000000000CA
:1013230000000000000000000000000000000000BA
:1013330000000000000000000000000000000000AA
:10134300000000000000000000000000000000009A
:10135300000100030007000F001F003F007F00FF94
:1013630000FF00FF00FF00FF00FF00FF00FF00FF82
:1013730000FF00FF00FF00FF00FF00FF00FF00FF72
:1013830000FF00FF00FF00FF00FF00FF00FF00FF62
:1013930000FE00FC00F800F000E000C00080000048
:1013A300000000000000000000000000000000003A
:1013B300000000000000000000000000000000002A
:0D1D5700E4F580F590F5A0F5B0E9FF7E0001
:101D64007D647C00AB07AA06D3EB9400EA940040A0
:101D740007EB1B70F31A80F0ED1D70011CED4C7025
:011D8400E37B
:011D8500223B
:101D2600A907121D577580FF7590FF75A0FF75B046
:101D3600FFE9FF121D64E4F580F590F5A0F5B0AF5C
:101D460001121D647580FF7590FF75A0FF75B0FFC9
:011D5600226A
:0213C300A90778
:1013C50090000075907F75B0FE121D607590BF7519
:1013D500B0FDE9FF121D647590DF75B0FBE9FF12E2
:1013E5001D647590EF75B0F7E9FF121D647590F7F0
:1013F50075B0EFE9FF121D647590FB75B0DFE9FF6D
:10140500121D647590FD75B0BFE9FF121D647590DE
:10141500FE75B07FE9FF121D647590FF75B0FF750D
:10142500A0FE75807FE9FF121D6475A0FD7580BF64
:10143500E9FF121D6475A0FB7580DFE9FF121D64CD
:1014450075A0F77580EFE9FF121D6475A0EF758033
:10145500F7E9FF121D6475A0DF7580FBE9FF121D1A
:101465006475A0BF7580FDE9FF121D6475A07F75C9
:1014750080FEE9FF121D6475A0FF7580FFA3E5825C
:101485006402458360030213C87580FE75A07F1250
:101495001D607580FD75A0BFE9FF121D647580FB99
:1014A50075A0DFE9FF121D647580F775A0EFE9FFF0
:1014B500121D647580EF75A0F7E9FF121D64758034
:1014C500DF75A0FBE9FF121D647580BF75A0FDE9FE
:1014D500FF121D6475807F75A0FEE9FF121D6475FE
:1014E50080FF75A0FF7590FE75B07FE9FF121D6442
:1014F5007590FD75B0BFE9FF121D647590FB75B061
:10150500DFE9FF121D647590F775B0EFE9FF121D55
:10151500647590EF75B0F7E9FF121D647590DF757E
:10152500B0FBE9FF121D647590BF75B0FDE9FF12B0
:101535001D6475907F75B0FEAF01121D647590FF37
:0315450075B0FF7F
:011548002280
:021D8600A907AB
:101D8800900003121D577580FF7590FF75A0FF75B1
:101D9800B0FFE9FF121D64E582158270021583E524
:051DA80082458370DE9E
:011DAD002213
:02154900A907F0
:10154B0090000375907F75A07F75B0FE7580FE12BD
:10155B001D607590BF75A0BF75B0FD7580FDE9FF6F
:10156B00121D647590DF75A0DF75B0FB7580FBE90C
:10157B00FF121D647590EF75A0EF75B0F77580F7CE
:10158B00E9FF121D647590F775A0F775B0EF7580C4
:10159B00EFE9FF121D647590FB75A0FB75B0DF754D
:1015AB0080DFE9FF121D647590FD75A0FD75B0BF5E
:1015BB007580BFE9FF121D647590FE75A0FE75B0B6
:1015CB007F75807FE9FF121D647590FD75A0FD7519
:1015DB00B0BF7580BFE9FF121D647590FB75A0FB52
:1015EB0075B0DF7580DFE9FF121D647590F775A08C
:1015FB00F775B0EF7580EFE9FF121D647590EF750D
:10160B00A0EF75B0F77580F7E9FF121D647590DFD9
:10161B0075A0DF75B0FB7580FBE9FF121D6475903B
:10162B00BF75A0BF75B0FD7580FDE9FF121D647518
:10163B00907F75A07F75B0FE7580FEE9FF121D646B
:10164B007580FF7590FF75A0FF75B0FFE582158261
:0D165B0070021583E5824583600302154E81
:01166800225F
:021C0200A90730
:101C0400E4F508F509E50925E0FFE50833FE74036A
:101C14002FF58274003EF583740193F58074F32FDD
:101C2400F58274043EF583740193F590E50925E08B
:101C3400FFE50833FE74D32FF582740E3EF58374EA
:101C44000193F5A074E32FF58274093EF5837401C2
:101C540093121D5E0509E50970020508C3946CE53D
:051C640008940240A0FD
:011C69002258
:021AF600A9073E
:101AF8007508007509027580FC7590FC75A0FC7569
:101B0800B0FC900000E58025E04401F580E59025D3
:101B1800E04401F590E5A025E04401F5A0E5B025F5
:101B2800E04401121D5EA3E5826407458370D67503
:101B3800803F75903F75A03F75B03FE4F583F5820F
:101B4800E580C3134480F580E590C3134480F59085
:101B5800E5A0C3134480F5A0E5B0C3134480121D6B
:101B68005EA3E5826407458370D6E509150970020E
:101B78001508D3E5099400E50894004003021AFE0D
:0C1B880075803F75903F75A03F75B03F21
:011B9400222E
:061785008C088D09A90784
:10178B00E4F50AF50BC3E50B9509E50A950840034B
:10179B00021866900000AF8274FFA807088002C38E
:1017AB0013D8FCF590AF8274FFA807088002C333EF
:1017BB00D8FC121D5EA3E5826409458370D8E4F55D
:1017CB0083F582AF8274FFA807088002C313D8FC8D
:1017DB00F580AF8274FFA807088002C333D8FCF5ED
:1017EB00A0121D60A3E5826409458370D6E4F583DE
:1017FB00F582AF8274FFA807088002C313D8FCF4EC
:10180B00F590AF8274FFA807088002C333D8FCF4AD
:10181B00121D5EA3E5826409458370D6E4F583F55A
:10182B0082AF8274FFA807088002C313D8FCF4F5BB
:10183B0080AF8274FFA807088002C333D8FCF4F58D
:10184B00A0121D60A3E5826409458370D4050BE5E6
:10185B000B6003021790050A0217907590FF75B085
:07186B00FF75A0FF7580FF6F
:011872002253
:021B9500A9079E
:101B9700900004E4F5B0F59075A0FF7580FF121D65
:101BA7006075B0FF7590FFE4F5A0F580E9FF121DA1
:101BB70064E582158270021583E582458370D490AF
:101BC7000004E4F5B07590FFF5A07580FF121D6065
:101BD70075B0FFE4F59075A0FFF580E9FF121D646D
:101BE700E582158270021583E582458370D475807E
:0A1BF7003F75903F75A03F75B03FA9
:011C010022C0
:02166900A907CF
:10166B009000007580FE121D607580FDE9FF121D54
:10167B00647580FBE9FF121D647580F7E9FF121D8D
:10168B00647580EFE9FF121D647580DFE9FF121DA1
:10169B00647580BFE9FF121D6475807FE9FF121D21
:1016AB00647580FF7590FEE9FF121D647590FDE96E
:1016BB00FF121D647590FBE9FF121D647590F7E92D
:1016CB00FF121D647590EFE9FF121D647590DFE941
:1016DB00FF121D647590BFE9FF121D6475907FE9C1
:1016EB00FF121D647590FF75B0FEE9FF121D647546
:1016FB00B0FDE9FF121D6475B0FBE9FF121D6475A7
:10170B00B0F7E9FF121D6475B0EFE9FF121D6475A8
:10171B00B0DFE9FF121D6475B0BFE9FF121D6475E0
:10172B00B07FE9FF121D6475B0FF75A0FEE9FF12D3
:10173B001D6475A0FDE9FF121D6475A0FBE9FF1286
:10174B001D6475A0F7E9FF121D6475A0EFE9FF1288
:10175B001D6475A0DFE9FF121D6475A0BFE9FF12C0
:10176B001D6475A07FE9FF121D6475A0FFA3E582C0
:09177B0064034583600302166E4D
:011784002242
:021873008F08DC
:101875008D0DE50DD39400500302193E750C0675C8
:1018850009EE750AEE750BEE79EEAF0C150CEF60EF
:1018950047850990850AB0850B8089A0AF09780135
:1018A500EF08800123D8FDF509AF0A7801EF08801C
:1018B5000123D8FDF50AAF0B7801EF08800123D885
:1018C500FDF50B7801AF01EF08800123D8FDF9AFD5
:1018D500087E00121D6480B2750C067509AA750A8A
:1018E500AA750BAA79AAAF0C150CEF60478509906C
:1018F500850AB0850B8089A0AF097801EF088001C2
:1019050023D8FDF509AF0A7801EF08800123D8FD3A
:10191500F50AAF0B7801EF08800123D8FDF50B78A8
:1019250001AF01EF08800123D8FDF9AF087E001251
:101935001D6480B2150D0218777580FF7590FF75CF
:05194500A0FF75B0FFDA
:01194A00227A
:021CED00A90745
:101CEF00900000E4F590F5A07580FF75B0FF121D10
:101CFF00607590FF75A0FFE4F580F5B0E9FF121D48
:101D0F0064A3E5826406458370D97590FF75A0FFC3
:061D1F007580FF75B0FFA6
:011D2500229B
:021CB200A90780
:101CB40090000075905575A05575805575B05512F6
:101CC4001D607590AA75A0AA7580AA75B0AAE9FFCF
:101CD400121D64A3E5826405458370D77590FF7572
:081CE400A0FF7580FF75B0FF41
:011CEC0022D5
:021C6A00A907C8
:101C6C00AF058F82758300D3E5829400E5839400E1
:101C7C004027E4F5B0F5A0F590F580121D6075B025
:101C8C00FF75A0FF7590FF7580FFE9FF121D64E5DD
:101C9C0082158270D2158380CE75B0FF75A0FF754A
:051CAC0090FF7580FFB0
:011CB1002210
:02194B008F0803
:10194D008D0DE50DD394005003021A16750C067516
:10195D0009EE750AEE750BEE79EEAF0C150CEF6016
:10196D0047850990850AB0850B8089A0AF0978015C
:10197D00EF08800103D8FDF509AF0A7801EF088063
:10198D000103D8FDF50AAF0B7801EF08800103D8EC
:10199D00FDF50B7801AF01EF08800103D8FDF9AF1C
:1019AD00087E00121D6480B2750C067509AA750AB1
:1019BD00AA750BAA79AAAF0C150CEF604785099093
:1019CD00850AB0850B8089A0AF097801EF088001E9
:1019DD0003D8FDF509AF0A7801EF08800103D8FDA2
:1019ED00F50AAF0B7801EF08800103D8FDF50B78F0
:1019FD0001AF01EF08800103D8FDF9AF087E001299
:101A0D001D6480B2150D02194F7580FF7590FF751D
:051A1D00A0FF75B0FF01
:011A220022A1
:101A23007F64121D267FB07E04121D647F4612134D
:101A3300C37F64121D867F641215497D037F96124E
:101A430018737F64121AF67D037C007F28121785B2
:101A53007FC8121B957F46121CED7F461213C37F6E
:101A6300641215497F64121CB27D0A7F1E121C6A20
:101A73007D057F3212194B7D057F1E121C6A7D0284
:101A83007C007F281217857F327E00121D647F0A37
:101A93001216697F051216697F051216697F0212F5
:101AA30016697F021216697F011216697F011216E9
:101AB300697F011216697F327E00121D647F461210
:101AC3001CED7D057F50121C6A7F1E7E00121D6473
:101AD300121C027F46121CED7F64121CB27580FF3C
:101AE3007590FF75A0FF75B0FF7F327E00121D64F5
:031AF300021A2FA5
:03000000021DAE30
:0C1DAE00787FE4F6D8FD75810D021A2341
:00000001FF
